:1000000012C019C018C017C016C015C014C013C044
:1000100012C011C010C00FC00EC00DC00CC00BC06C
:100020000AC009C008C011241FBECFE5D4E0DEBF5E
:10003000CDBF02D04CC0E4CFCF92DF92EF92FF92BF
:100040000F931F93CF93DF9381E087BB41E098EB41
:10005000C92E9BE0D92E88EAE82E8EEDF82E2CE2F0
:1000600031E004E911E1CCECD8EDA0E7B7E160EFB5
:1000700072ED48BBC6010197F1F718BAC7010197A5
:10008000F1F780E197E2F9013197F1F70197D9F79C
:1000900048BBC8010197F1F718BACE010197F1F7F3
:1000A00080E197E2F9013197F1F70197D9F748BB61
:1000B000CD010197F1F718BACB010197F1F780E173
:1000C00097E2F9013197F1F70197D9F7D2CFF89478
:0200D000FFCF60
:00000001FF
