:1000000012C019C018C017C016C015C014C013C044
:1000100012C011C010C00FC00EC00DC00CC00BC06C
:100020000AC009C008C011241FBECFE5D4E0DEBF5E
:10003000CDBF02D03CC0E4CF0F931F93CF93DF938B
:1000400014BA8FE087BB85BB20E031E004E911E101
:10005000CCECD8EDA0E7B7E1E0EFF2ED68EB7BE0A8
:1000600048EA5EED989906C02F5F243008F021E041
:10007000989BFECF223059F0233081F0213091F748
:1000800028BBCB010197F1F718BACA010DC038BBE4
:10009000C8010197F1F718BACE0106C038BBCD01EF
:1000A0000197F1F718BACF010197F1F7DBCFF89478
:0200B000FFCF80
:00000001FF
