:1000000012C02CC02BC02AC029C028C027C026C0BF
:1000100025C024C023C022C021C020C01FC01EC0D4
:100020001DC01CC01BC011241FBECFE5D4E0DEBF25
:10003000CDBF10E0A0E6B0E0EAE9F3E002C0059031
:100040000D92AC39B107D9F710E0ACE9B0E001C0CE
:100050001D92A43AB107E1F7E0D09DC1D1CF209124
:100060009C0090E002C09F5F2BE09817E0F3209384
:100070009C0090939D000895C59888ECF0DFC59A88
:1000800088ECEDDFC59808951F93182F88B38F7CF7
:1000900088BB812F82958F7088BBEEDF1F7018BBE5
:1000A000EBDF1F9108951F93182F80E188BB18BACA
:1000B000812F82958F70806188BBDEDF1F70106199
:1000C00018BBDADF1F910895CF93DF93EC0102C0D4
:1000D000EADF219688818823D9F7DF91CF910895AF
:1000E000EF92FF920F931F93182F64E621D1482FB0
:1000F000282F30E08CE99FEF289F7001299FF00C9A
:10010000389FF00C1124C701810F911D6AE070E047
:100110001BD1062F842F805DC6DF802F805DC3DF5B
:10012000105D1E0D86EF9FEF089F002D1124802F7C
:10013000810FB9DF1F910F91FF90EF9008958823F1
:1001400021F4862F8058A0DF0895813019F4862F7E
:1001500080549ADF08950AC020E030E000002F5F4D
:100160003F4F4CE02C3C3407C9F701970097A1F7AB
:1001700008951F938FE387BB84E190E0ECDF13E0E9
:1001800018BB7ADF85E090E0E6DF18BB75DF81E021
:1001900090E0E1DF18BB70DF81E090E0DCDF82E01F
:1001A00088BB6ADF85E090E0D6DF88E26DDF81E022
:1001B00090E0D1DF88E068DF81E090E0CCDF81E093
:1001C00063DF81E090E0C7DF86E05EDF81E090E002
:1001D000C2DF8CE059DF82E090E0BDDF1F9108951F
:1001E00081E052DF089586E886B9089590E697B9D0
:1001F00097B1982B97B9369A3699FECF85B1089565
:1002000016B8989907C0989BFECF8091A1008F5F88
:100210008093A10087E886B90895DF92EF92FF925C
:100220000F931F93CF93DF9380EF81BB81E085BB5A
:10023000A0DF80E690E048DF80E197E22CE231E049
:10024000F9013197F1F70197D9F780E060E077DFA6
:100250008DE690E039DF81E060E071DF8CE790E0CF
:1002600033DF1092A10086E886B91FE0CCE2D1E02E
:1002700020E5D22E94E0E92E80EAF82E08E018BBA3
:1002800080E197E2FE013197F1F70197D9F718BAAB
:1002900080E197E2FE013197F1F70197D9F71EC08F
:1002A00080E060E04CDF85E890E00EDF81E060E018
:1002B00046DF8CE790E008DFD2BAE8BA80E197E247
:1002C000FE013197F1F70197D9F7F2BA08BB80E147
:1002D00097E2FE013197F1F70197D9F791DF80910D
:1002E000A1008130E9F21EC015BA80E060E027DF8E
:1002F00085E990E0E9DE80E079DFF2DE8AE990E0EE
:10030000E3DE81E073DFECDE8AE990E0DDDE82E0AF
:100310006DDFE6DE81E060E012DF8CE790E0D4DEA6
:1003200015BB6EDF8091A100823009F0A8CFDCCF31
:10033000991B79E004C0991F961708F0961B881F37
:100340007A95C9F78095089597FB092E07260AD05C
:1003500077FD04D00CD006D000201AF4709561957A
:100360007F4F0895F6F7909581959F4F0895AA1BAA
:10037000BB1B51E107C0AA1FBB1FA617B70710F090
:10038000A61BB70B881F991F5A95A9F780959095C2
:0A039000BC01CD010895F894FFCFE1
:10039A00546563686E6F7068696C696100626C6944
:1003AA006E6B696E67204C454473200070726573EA
:1003BA0073207330006D6F76206D6F746F7220201A
:0C03CA00202020200041444320002C0093
:00000001FF
