:1000000012C019C018C017C016C015C014C013C044
:1000100012C011C010C00FC00EC00DC00CC00BC06C
:100020000AC009C008C011241FBECFE5D4E0DEBF5E
:10003000CDBF02D028C0E4CF14BA81E085BB8FE0E9
:1000400087BB18BA80E024E098E0989906C08F5FDB
:10005000853008F080E0989BFECF823071F08330CD
:1000600028F4882341F0813081F707C0833039F0CC
:10007000843059F706C018BAE8CF88BBE6CF28BB52
:0A008000E4CF98BBE2CFF894FFCF65
:00000001FF
